:0400000080314928DA
:100008007E1480312100111E0A280B282428200084
:10001800111E0F2810282428203080318E2080318E
:1000280023009A0020308131A6218031003A03193B
:100038001E281F2822282100111624282100111209
:100048002100911E2828292847282000911E2D28A4
:100058002E284728003023001D190130F400190804
:10006800F5007408031D39283A2840287508F0005F
:100078003A3081312821803123009D1C44284528AD
:1000880047281D121D167E10090080314B2820308C
:1000980084000030850034308131F82180317E10B1
:1000A80020008031C4282000D5005508193E86005C
:1000B80087015508183E8400850100080106031DC4
:1000C80066286728692800308D285508193E86005B
:1000D800870101085507F6007608860087010108A0
:1000E800D4000130F6005508193E860087017608CD
:1000F80081075508193E8600870118300102031C44
:10010800862887288C285508193E86008701810192
:1001180054080800F2007208193E86008701720828
:10012800183E8400850100080106031D9C289D28AF
:100138009F280030C3287208193E860087010108ED
:100148007207F0007008860087010108F10001308D
:10015800F0007208193E860087017008810772084E
:10016800193E8600870118300102031CBC28BD28EF
:10017800C2287208193E86008701810171080800AB
:1001880021009D01220098019701910127009C01FF
:1001980023008C010A3021008C0020008C012100F2
:1001A8009801990119088739703899008131DE2141
:1001B80080318B17ED302000D7008130D800813195
:1001C80055218031ED288131FE2180318131CE21C8
:1001D8008031823103228031003A031DF428F5284A
:1001E800E728ED28803149282000D5005508183E19
:1001F800860087010108013ED40018305402031C10
:10020800062907290829D4015508193E86008701BF
:1002180001085406031D112912291429FF30272922
:100228005508183E8600870101085507F70077082A
:1002380086008701760881005508183E86008701E8
:100248005408810000300800F3007308183E860047
:1002580087010108013EF20018307202031C35299B
:1002680036293729F2017308193E860087010108EB
:100278007206031D40294129422954297308183E52
:100288008600870101087307F1007108860087015D
:10029800700881007308183E860087017208810083
:1002A8000800200057085804031D5B295C295D29B4
:1002B8007D2962295B088131CE21813120005808CF
:1002C800DA005708D900D70A0319D80A5908840050
:1002D8005A0885000008DB005B08031D742975298E
:1002E8005E290D308131CE2181310A308131CE2114
:1002F80081310800F7007708193E860087017708E2
:10030800183E8400850100080106031D8C298D29EB
:100318008F290030A5297708183E860087017708BD
:10032800193E8400850100080102F6007608803A2B
:100338007F3E031CA029A129A3297608A5297608B0
:10034800183E0800F1007108193E860087017108FF
:10035800183E8400850100080106031DB429B5294B
:10036800B7290030CD297108183E86008701710829
:10037800193E8400850100080102F0007008803AE7
:100388007F3E031CC829C929CB297008CD297008CC
:10039800183E08002000D6005608F60020308031AC
:1003A800F8208131003A031DDA29DB29DD292100F3
:1003B8001116080023009A019F019F1533309B00F6
:1003C8009E019D019E161D169D170B172100911663
:1003D8000800493427346D34203461346C3469346E
:1003E8007634653421340034640080010131890B8E
:1003F800F92900343A3080315720813108003A30E9
:0804080081317E2182310800E0
:020000040001F9
:08000000FF3FFF3FFF3FFF3F00
:04000E00E407FF3EC6
:00000001FF
