:1000000019C033C032C031C030C02FC02EC02DC087
:100010002CC02BC02AC029C028C027C026C025C09C
:1000200024C023C041C068C020C01FC01EC01DC066
:100030001CC01BC011241FBECFEFD4E0DEBFCDBF5C
:1000400011E0A0E0B1E0E8E3F2E002C005900D921B
:10005000AC30B107D9F721E0ACE0B1E001C01D92AE
:10006000A034B207E1F702D0E5C0CACF81E083BF78
:100070000CD0789480E091E09ED0CBD0882319F00A
:10008000AED07ED0FACF8895F8CF1092C50087E623
:100090008093C40082E08093C00088E98093C1000F
:1000A00086E08093C20008951F920F920FB60F92C0
:1000B00011242F938F939F93EF93FF939091C600FA
:1000C00080913E018F5F883109F480E020913F01EB
:1000D000281741F0E0913E01F0E0EA5DFE4F908389
:1000E00080933E01FF91EF919F918F912F910F90FF
:1000F0000FBE0F901F9018951F920F920FB60F9280
:1001000011248F939F93EF93FF938091C1008F7D74
:100110008093C1009091240180912501981739F1B5
:100120008091240190912501891B883E01F19091D5
:10013000240180912501981791F0E0912501F0E0CC
:10014000E45FFE4F8081909125019F5F9093250190
:1001500090912501983121F41092250101C080E091
:100160008093C6008091C10080628093C100FF919E
:10017000EF919F918F910F900FBE0F901F90189548
:10018000909124019F5F983109F490E0209125011E
:10019000291779F0E0912401F0E0E45FFE4F8083BD
:1001A000909324018091C10080628093C10080E01F
:1001B00008958FEF0895CF93DF93009761F0EC01DE
:1001C0008991882311F0DCDFFBCF8DE0D9DF8AE055
:1001D000D7DF80E001C08FEFDF91CF91089590913C
:1001E0003E0180913F01981791F0E0913F01F0E0CE
:1001F000EA5DFE4F808190913F019F5F90933F01A8
:1002000090913F01983121F410923F01089580E0D0
:10021000089590913E0180913F01981749F0809197
:100220003E0190913F01891B18161CF0885E0895CD
:0802300080E00895F894FFCF6F
:0C02380049276D20616C6976652100008B
:00000001FF
